{
  "_format": "hh-sol-artifact-1",
  "contractName": "FinancingContract",
  "sourceName": "contracts/V2/finance/Financing.sol",
  "abi": [
    {
      "inputs": [],
      "name": "AlreadyFinanced",
      "type": "error"
    },
    {
      "inputs": [],
      "name": "FinancingNotFound",
      "type": "error"
    },
    {
      "inputs": [],
      "name": "FinancingNotPending",
      "type": "error"
    },
    {
      "inputs": [],
      "name": "InsufficientBalance",
      "type": "error"
    },
    {
      "inputs": [],
      "name": "LoanNotFound",
      "type": "error"
    },
    {
      "inputs": [],
      "name": "NotLender",
      "type": "error"
    },
    {
      "anonymous": false,
      "inputs": [
        {
          "indexed": true,
          "internalType": "address",
          "name": "_lender",
          "type": "address"
        },
        {
          "indexed": true,
          "internalType": "address",
          "name": "_loaner",
          "type": "address"
        },
        {
          "indexed": false,
          "internalType": "uint256",
          "name": "_propertyId",
          "type": "uint256"
        }
      ],
      "name": "FinanceApproval",
      "type": "event"
    },
    {
      "anonymous": false,
      "inputs": [
        {
          "indexed": true,
          "internalType": "address",
          "name": "_lender",
          "type": "address"
        },
        {
          "indexed": true,
          "internalType": "address",
          "name": "_loaner",
          "type": "address"
        },
        {
          "indexed": false,
          "internalType": "uint256",
          "name": "_propertyId",
          "type": "uint256"
        }
      ],
      "name": "FinanceRejection",
      "type": "event"
    },
    {
      "anonymous": false,
      "inputs": [
        {
          "indexed": true,
          "internalType": "address",
          "name": "_lender",
          "type": "address"
        },
        {
          "indexed": true,
          "internalType": "address",
          "name": "_loaner",
          "type": "address"
        },
        {
          "indexed": false,
          "internalType": "uint256",
          "name": "_propertyId",
          "type": "uint256"
        }
      ],
      "name": "FinanceRequest",
      "type": "event"
    },
    {
      "anonymous": false,
      "inputs": [
        {
          "indexed": false,
          "internalType": "uint8",
          "name": "version",
          "type": "uint8"
        }
      ],
      "name": "Initialized",
      "type": "event"
    },
    {
      "anonymous": false,
      "inputs": [
        {
          "indexed": false,
          "internalType": "uint256",
          "name": "loanId",
          "type": "uint256"
        }
      ],
      "name": "LoanAdded",
      "type": "event"
    },
    {
      "anonymous": false,
      "inputs": [
        {
          "indexed": false,
          "internalType": "uint256",
          "name": "loanId",
          "type": "uint256"
        }
      ],
      "name": "LoanRemoved",
      "type": "event"
    },
    {
      "anonymous": false,
      "inputs": [
        {
          "indexed": true,
          "internalType": "address",
          "name": "previousOwner",
          "type": "address"
        },
        {
          "indexed": true,
          "internalType": "address",
          "name": "newOwner",
          "type": "address"
        }
      ],
      "name": "OwnershipTransferred",
      "type": "event"
    },
    {
      "anonymous": false,
      "inputs": [
        {
          "indexed": true,
          "internalType": "address",
          "name": "_lender",
          "type": "address"
        },
        {
          "indexed": true,
          "internalType": "address",
          "name": "_loaner",
          "type": "address"
        },
        {
          "indexed": false,
          "internalType": "uint256",
          "name": "_propertyId",
          "type": "uint256"
        }
      ],
      "name": "PaidOff",
      "type": "event"
    },
    {
      "inputs": [
        {
          "internalType": "address",
          "name": "_lender",
          "type": "address"
        },
        {
          "internalType": "uint256",
          "name": "_annualInterestRate",
          "type": "uint256"
        },
        {
          "internalType": "uint256",
          "name": "_maxDurationInMonths",
          "type": "uint256"
        }
      ],
      "name": "addLoan",
      "outputs": [],
      "stateMutability": "nonpayable",
      "type": "function"
    },
    {
      "inputs": [
        {
          "internalType": "uint256",
          "name": "_financingId",
          "type": "uint256"
        }
      ],
      "name": "approveFinancing",
      "outputs": [],
      "stateMutability": "payable",
      "type": "function"
    },
    {
      "inputs": [],
      "name": "financingCount",
      "outputs": [
        {
          "internalType": "uint256",
          "name": "",
          "type": "uint256"
        }
      ],
      "stateMutability": "view",
      "type": "function"
    },
    {
      "inputs": [
        {
          "internalType": "address",
          "name": "_loaner",
          "type": "address"
        },
        {
          "internalType": "uint256",
          "name": "_loanId",
          "type": "uint256"
        },
        {
          "internalType": "uint256",
          "name": "_propertyId",
          "type": "uint256"
        },
        {
          "internalType": "uint256",
          "name": "_loanAmount",
          "type": "uint256"
        },
        {
          "internalType": "uint256",
          "name": "_durationInMonths",
          "type": "uint256"
        }
      ],
      "name": "financingRequest",
      "outputs": [
        {
          "internalType": "uint256",
          "name": "",
          "type": "uint256"
        }
      ],
      "stateMutability": "nonpayable",
      "type": "function"
    },
    {
      "inputs": [
        {
          "internalType": "uint256",
          "name": "",
          "type": "uint256"
        }
      ],
      "name": "financings",
      "outputs": [
        {
          "internalType": "uint256",
          "name": "financingId",
          "type": "uint256"
        },
        {
          "internalType": "uint256",
          "name": "propertyId",
          "type": "uint256"
        },
        {
          "internalType": "address",
          "name": "loaner",
          "type": "address"
        },
        {
          "internalType": "uint256",
          "name": "loanId",
          "type": "uint256"
        },
        {
          "internalType": "enum FinancingContract.FinancingStatus",
          "name": "status",
          "type": "uint8"
        },
        {
          "internalType": "uint256",
          "name": "loanAmount",
          "type": "uint256"
        },
        {
          "internalType": "uint256",
          "name": "durationInMonths",
          "type": "uint256"
        },
        {
          "internalType": "uint256",
          "name": "paidMonths",
          "type": "uint256"
        }
      ],
      "stateMutability": "view",
      "type": "function"
    },
    {
      "inputs": [],
      "name": "getAllLoans",
      "outputs": [
        {
          "components": [
            {
              "internalType": "address",
              "name": "lender",
              "type": "address"
            },
            {
              "internalType": "uint256",
              "name": "annualInterestRate",
              "type": "uint256"
            },
            {
              "internalType": "uint256",
              "name": "maxDurationInMonths",
              "type": "uint256"
            },
            {
              "internalType": "uint256",
              "name": "loanId",
              "type": "uint256"
            }
          ],
          "internalType": "struct LoaningContract.Loan[]",
          "name": "",
          "type": "tuple[]"
        }
      ],
      "stateMutability": "view",
      "type": "function"
    },
    {
      "inputs": [
        {
          "internalType": "uint256",
          "name": "_propertyId",
          "type": "uint256"
        }
      ],
      "name": "getFinancing",
      "outputs": [
        {
          "components": [
            {
              "internalType": "uint256",
              "name": "financingId",
              "type": "uint256"
            },
            {
              "internalType": "uint256",
              "name": "propertyId",
              "type": "uint256"
            },
            {
              "internalType": "address",
              "name": "loaner",
              "type": "address"
            },
            {
              "internalType": "uint256",
              "name": "loanId",
              "type": "uint256"
            },
            {
              "internalType": "enum FinancingContract.FinancingStatus",
              "name": "status",
              "type": "uint8"
            },
            {
              "internalType": "uint256",
              "name": "loanAmount",
              "type": "uint256"
            },
            {
              "internalType": "uint256",
              "name": "durationInMonths",
              "type": "uint256"
            },
            {
              "internalType": "uint256",
              "name": "paidMonths",
              "type": "uint256"
            }
          ],
          "internalType": "struct FinancingContract.Financing",
          "name": "",
          "type": "tuple"
        }
      ],
      "stateMutability": "view",
      "type": "function"
    },
    {
      "inputs": [
        {
          "internalType": "uint256",
          "name": "_propertyId",
          "type": "uint256"
        }
      ],
      "name": "getFinancingId",
      "outputs": [
        {
          "internalType": "uint256",
          "name": "",
          "type": "uint256"
        }
      ],
      "stateMutability": "view",
      "type": "function"
    },
    {
      "inputs": [
        {
          "internalType": "uint256",
          "name": "_financingId",
          "type": "uint256"
        }
      ],
      "name": "getFinancingWithId",
      "outputs": [
        {
          "components": [
            {
              "internalType": "uint256",
              "name": "financingId",
              "type": "uint256"
            },
            {
              "internalType": "uint256",
              "name": "propertyId",
              "type": "uint256"
            },
            {
              "internalType": "address",
              "name": "loaner",
              "type": "address"
            },
            {
              "internalType": "uint256",
              "name": "loanId",
              "type": "uint256"
            },
            {
              "internalType": "enum FinancingContract.FinancingStatus",
              "name": "status",
              "type": "uint8"
            },
            {
              "internalType": "uint256",
              "name": "loanAmount",
              "type": "uint256"
            },
            {
              "internalType": "uint256",
              "name": "durationInMonths",
              "type": "uint256"
            },
            {
              "internalType": "uint256",
              "name": "paidMonths",
              "type": "uint256"
            }
          ],
          "internalType": "struct FinancingContract.Financing",
          "name": "",
          "type": "tuple"
        }
      ],
      "stateMutability": "view",
      "type": "function"
    },
    {
      "inputs": [
        {
          "internalType": "uint256",
          "name": "_loanId",
          "type": "uint256"
        }
      ],
      "name": "getLoan",
      "outputs": [
        {
          "components": [
            {
              "internalType": "address",
              "name": "lender",
              "type": "address"
            },
            {
              "internalType": "uint256",
              "name": "annualInterestRate",
              "type": "uint256"
            },
            {
              "internalType": "uint256",
              "name": "maxDurationInMonths",
              "type": "uint256"
            },
            {
              "internalType": "uint256",
              "name": "loanId",
              "type": "uint256"
            }
          ],
          "internalType": "struct LoaningContract.Loan",
          "name": "",
          "type": "tuple"
        }
      ],
      "stateMutability": "view",
      "type": "function"
    },
    {
      "inputs": [],
      "name": "initialize",
      "outputs": [],
      "stateMutability": "nonpayable",
      "type": "function"
    },
    {
      "inputs": [],
      "name": "lenderGetFinancings",
      "outputs": [
        {
          "components": [
            {
              "internalType": "uint256",
              "name": "financingId",
              "type": "uint256"
            },
            {
              "internalType": "uint256",
              "name": "propertyId",
              "type": "uint256"
            },
            {
              "internalType": "address",
              "name": "loaner",
              "type": "address"
            },
            {
              "internalType": "uint256",
              "name": "loanId",
              "type": "uint256"
            },
            {
              "internalType": "enum FinancingContract.FinancingStatus",
              "name": "status",
              "type": "uint8"
            },
            {
              "internalType": "uint256",
              "name": "loanAmount",
              "type": "uint256"
            },
            {
              "internalType": "uint256",
              "name": "durationInMonths",
              "type": "uint256"
            },
            {
              "internalType": "uint256",
              "name": "paidMonths",
              "type": "uint256"
            }
          ],
          "internalType": "struct FinancingContract.Financing[]",
          "name": "",
          "type": "tuple[]"
        }
      ],
      "stateMutability": "view",
      "type": "function"
    },
    {
      "inputs": [
        {
          "internalType": "address",
          "name": "",
          "type": "address"
        },
        {
          "internalType": "uint256",
          "name": "",
          "type": "uint256"
        }
      ],
      "name": "lenderToFinancing",
      "outputs": [
        {
          "internalType": "uint256",
          "name": "",
          "type": "uint256"
        }
      ],
      "stateMutability": "view",
      "type": "function"
    },
    {
      "inputs": [],
      "name": "loanCount",
      "outputs": [
        {
          "internalType": "uint256",
          "name": "",
          "type": "uint256"
        }
      ],
      "stateMutability": "view",
      "type": "function"
    },
    {
      "inputs": [
        {
          "internalType": "uint256",
          "name": "",
          "type": "uint256"
        }
      ],
      "name": "loans",
      "outputs": [
        {
          "internalType": "address",
          "name": "lender",
          "type": "address"
        },
        {
          "internalType": "uint256",
          "name": "annualInterestRate",
          "type": "uint256"
        },
        {
          "internalType": "uint256",
          "name": "maxDurationInMonths",
          "type": "uint256"
        },
        {
          "internalType": "uint256",
          "name": "loanId",
          "type": "uint256"
        }
      ],
      "stateMutability": "view",
      "type": "function"
    },
    {
      "inputs": [],
      "name": "owner",
      "outputs": [
        {
          "internalType": "address",
          "name": "",
          "type": "address"
        }
      ],
      "stateMutability": "view",
      "type": "function"
    },
    {
      "inputs": [
        {
          "internalType": "uint256",
          "name": "_propertyId",
          "type": "uint256"
        }
      ],
      "name": "payOffFinancing",
      "outputs": [],
      "stateMutability": "nonpayable",
      "type": "function"
    },
    {
      "inputs": [
        {
          "internalType": "uint256",
          "name": "",
          "type": "uint256"
        }
      ],
      "name": "propertyToFinancing",
      "outputs": [
        {
          "internalType": "uint256",
          "name": "",
          "type": "uint256"
        }
      ],
      "stateMutability": "view",
      "type": "function"
    },
    {
      "inputs": [
        {
          "internalType": "uint256",
          "name": "_financingId",
          "type": "uint256"
        }
      ],
      "name": "rejectFinancing",
      "outputs": [],
      "stateMutability": "nonpayable",
      "type": "function"
    },
    {
      "inputs": [
        {
          "internalType": "uint256",
          "name": "_propertyId",
          "type": "uint256"
        }
      ],
      "name": "remainingBalance",
      "outputs": [
        {
          "internalType": "uint256",
          "name": "",
          "type": "uint256"
        }
      ],
      "stateMutability": "view",
      "type": "function"
    },
    {
      "inputs": [
        {
          "internalType": "uint256",
          "name": "_loanId",
          "type": "uint256"
        }
      ],
      "name": "removeLoan",
      "outputs": [],
      "stateMutability": "nonpayable",
      "type": "function"
    },
    {
      "inputs": [],
      "name": "renounceOwnership",
      "outputs": [],
      "stateMutability": "nonpayable",
      "type": "function"
    },
    {
      "inputs": [
        {
          "internalType": "uint256",
          "name": "_loanId",
          "type": "uint256"
        },
        {
          "internalType": "uint256",
          "name": "_annualInterestRate",
          "type": "uint256"
        }
      ],
      "name": "setAnnualInterestRate",
      "outputs": [],
      "stateMutability": "nonpayable",
      "type": "function"
    },
    {
      "inputs": [
        {
          "internalType": "uint256",
          "name": "_propertyId",
          "type": "uint256"
        },
        {
          "internalType": "uint256",
          "name": "_financingId",
          "type": "uint256"
        }
      ],
      "name": "setFinancingId",
      "outputs": [],
      "stateMutability": "nonpayable",
      "type": "function"
    },
    {
      "inputs": [
        {
          "internalType": "uint256",
          "name": "_loanId",
          "type": "uint256"
        },
        {
          "internalType": "uint256",
          "name": "_maxDurationInMonths",
          "type": "uint256"
        }
      ],
      "name": "setMaxDurationInMonths",
      "outputs": [],
      "stateMutability": "nonpayable",
      "type": "function"
    },
    {
      "inputs": [
        {
          "internalType": "address",
          "name": "newOwner",
          "type": "address"
        }
      ],
      "name": "transferOwnership",
      "outputs": [],
      "stateMutability": "nonpayable",
      "type": "function"
    }
  ],
  "bytecode": "0x608060405234801561001057600080fd5b5061192e806100206000396000f3fe6080604052600436106101815760003560e01c80638da5cb5b116100d1578063cb7d90101161008a578063ec58aa0d11610064578063ec58aa0d146104c7578063ecd2543214610547578063f2fde38b1461055a578063f3de41b51461057a57600080fd5b8063cb7d90101461041b578063ce63094d1461043b578063e1ec3c681461045157600080fd5b80638da5cb5b14610344578063a5bfd16a1461036c578063a606281c1461038e578063a8818cf1146103ae578063b06c6f5b146103ce578063c5ec7529146103ee57600080fd5b8063504006ca1161013e578063715018a611610118578063715018a6146102da5780638129fc1c146102ef57806381d49b4d146103045780638a195a901461032457600080fd5b8063504006ca14610277578063622af65a146102a4578063698353ba146102ba57600080fd5b80630c15c7711461018657806319339733146101b5578063265fa366146101d5578063274c429f146102085780632846a44614610235578063457be68d14610257575b600080fd5b34801561019257600080fd5b506101b36101a1366004611527565b60009182526069602052604090912055565b005b3480156101c157600080fd5b506101b36101d0366004611565565b6105a7565b3480156101e157600080fd5b506101f56101f0366004611598565b61065d565b6040519081526020015b60405180910390f35b34801561021457600080fd5b50610228610223366004611598565b6106ae565b6040516101ff9190611648565b34801561024157600080fd5b5061024a610795565b6040516101ff919061165d565b34801561026357600080fd5b506101b3610272366004611527565b61093e565b34801561028357600080fd5b50610297610292366004611598565b61098d565b6040516101ff91906116ac565b3480156102b057600080fd5b506101f560675481565b3480156102c657600080fd5b506101f56102d53660046116e0565b610a0f565b3480156102e657600080fd5b506101b3610a40565b3480156102fb57600080fd5b506101b3610a54565b34801561031057600080fd5b506101b361031f366004611598565b610b7a565b34801561033057600080fd5b506101b361033f366004611527565b610c66565b34801561035057600080fd5b506033546040516001600160a01b0390911681526020016101ff565b34801561037857600080fd5b50610381610cb5565b6040516101ff919061170a565b34801561039a57600080fd5b506102286103a9366004611598565b610dee565b3480156103ba57600080fd5b506101b36103c9366004611598565b610e69565b3480156103da57600080fd5b506101f56103e9366004611773565b610f11565b3480156103fa57600080fd5b506101f5610409366004611598565b60696020526000908152604090205481565b34801561042757600080fd5b506101b3610436366004611598565b611156565b34801561044757600080fd5b506101f560655481565b34801561045d57600080fd5b5061049d61046c366004611598565b60666020526000908152604090208054600182015460028301546003909301546001600160a01b0390921692909184565b604080516001600160a01b03909516855260208501939093529183015260608201526080016101ff565b3480156104d357600080fd5b506105336104e2366004611598565b60686020526000908152604090208054600182015460028301546003840154600485015460058601546006870154600790970154959694956001600160a01b0390941694929360ff90921692909188565b6040516101ff9897969594939291906117b5565b6101b3610555366004611598565b6111c9565b34801561056657600080fd5b506101b3610575366004611806565b61134c565b34801561058657600080fd5b506101f5610595366004611598565b60009081526069602052604090205490565b606580549060006105b78361183e565b9091555050604080516080810182526001600160a01b0385811682526020808301868152838501868152606580546060870181815260009182526066865290889020965187546001600160a01b03191696169590951786559151600186015551600285015591516003909301929092555491519182527fc6526819b79c79bca265d26d44112d2abeb9aa87aec729ae40baf6e37e8111c6910160405180910390a1505050565b600081815260696020908152604080832054808452606890925282206003600482015460ff166005811115610694576106946115b1565b146106a3575060009392505050565b600501549392505050565b6106b66114c8565b60008281526068602052604090206002015482906001600160a01b03166106f057604051637871098960e11b815260040160405180910390fd5b6000838152606860209081526040918290208251610100810184528154815260018201549281019290925260028101546001600160a01b031692820192909252600382015460608201526004820154909190608083019060ff16600581111561075b5761075b6115b1565b600581111561076c5761076c6115b1565b815260058201546020820152600682015460408201526007909101546060909101529392505050565b336000908152606a602090815260408083208054825181850281018501909352808352606094938301828280156107eb57602002820191906000526020600020905b8154815260200190600101908083116107d7575b505050505090506000815167ffffffffffffffff81111561080e5761080e611857565b60405190808252806020026020018201604052801561084757816020015b6108346114c8565b81526020019060019003908161082c5790505b50905060005b8251811015610937576068600084838151811061086c5761086c61186d565b60209081029190910181015182528181019290925260409081016000208151610100810183528154815260018201549381019390935260028101546001600160a01b031691830191909152600381015460608301526004810154608083019060ff1660058111156108df576108df6115b1565b60058111156108f0576108f06115b1565b815260200160058201548152602001600682015481526020016007820154815250508282815181106109245761092461186d565b602090810291909101015260010161084d565b5092915050565b60008281526066602052604090205482906001600160a01b0316331461097757604051638c38000360e01b815260040160405180910390fd5b5060009182526066602052604090912060020155565b6109c1604051806080016040528060006001600160a01b031681526020016000815260200160008152602001600081525090565b50600090815260666020908152604091829020825160808101845281546001600160a01b03168152600182015492810192909252600281015492820192909252600390910154606082015290565b606a6020528160005260406000208181548110610a2b57600080fd5b90600052602060002001600091509150505481565b610a486113c2565b610a52600061141c565b565b600054610100900460ff1615808015610a745750600054600160ff909116105b80610a8e5750303b158015610a8e575060005460ff166001145b610af65760405162461bcd60e51b815260206004820152602e60248201527f496e697469616c697a61626c653a20636f6e747261637420697320616c72656160448201526d191e481a5b9a5d1a585b1a5e995960921b60648201526084015b60405180910390fd5b6000805460ff191660011790558015610b19576000805461ff0019166101001790555b610b2161146e565b610b2b6000606555565b60006067558015610b77576000805461ff0019169055604051600181527f7f26b83ff96e1f2b6a682f133852f6798a09c465da95921460cefb3847402498906020015b60405180910390a15b50565b60008181526068602052604090206001600482015460ff166005811115610ba357610ba36115b1565b14610bc157604051630c6caf8960e11b815260040160405180910390fd5b60038101546000908152606660205260409020546001600160a01b03163314610bfd57604051638c38000360e01b815260040160405180910390fd5b60048101805460ff191660029081179091558101546001600160a01b0316336001600160a01b03167f37843929b7dc3e6f429d72551c63a48c23271df211a56c4f8cf2dc35100fa75b8360010154604051610c5a91815260200190565b60405180910390a35050565b60008281526066602052604090205482906001600160a01b03163314610c9f57604051638c38000360e01b815260040160405180910390fd5b5060009182526066602052604090912060010155565b6060600060655467ffffffffffffffff811115610cd457610cd4611857565b604051908082528060200260200182016040528015610d3957816020015b610d26604051806080016040528060006001600160a01b031681526020016000815260200160008152602001600081525090565b815260200190600190039081610cf25790505b50905060015b6065548111610de8576000818152606660205260409020546001600160a01b031615610dd657600081815260666020908152604091829020825160808101845281546001600160a01b03168152600180830154938201939093526002820154938101939093526003015460608301528390610dba9084611883565b81518110610dca57610dca61186d565b60200260200101819052505b80610de08161183e565b915050610d3f565b50919050565b610df66114c8565b60008281526069602090815260408083205480845260688352928190208151610100810183528154815260018201549381019390935260028101546001600160a01b031691830191909152600381015460608301526004810154608083019060ff16600581111561075b5761075b6115b1565b6000818152606660205260409020546001600160a01b0316610e9e57604051630e7e621d60e01b815260040160405180910390fd5b600081815260666020526040812080546001600160a01b031916815560018101829055600281018290556003018190556065805491610edc83611896565b90915550506040518181527f7356c9d0d4784328d8e1a9b265f4fd6fb70c9aef871f6cb21ddce73149051af390602001610b6e565b6000838152606960209081526040808320548084526068909252822060020154859188916001600160a01b038084169116148015610f745750600360008481526068602052604090206004015460ff166005811115610f7257610f726115b1565b145b15610f92576040516362c0ba7160e01b815260040160405180910390fd5b60008881526066602052604081206003810154909103610fc557604051630e7e621d60e01b815260040160405180910390fd5b60678054906000610fd58361183e565b909155505080546001600160a01b039081166000908152606a60209081526040808320606780548254600181810185559387529585902090950194909455815161010081018352935484529183018c9052928d1692820192909252606081018b905290608082019081526020018881526020018781526020016000815250606860006067548152602001908152602001600020600082015181600001556020820151816001015560408201518160020160006101000a8154816001600160a01b0302191690836001600160a01b031602179055506060820151816003015560808201518160040160006101000a81548160ff021916908360058111156110dd576110dd6115b1565b021790555060a0820151600582015560c0820151600682015560e09091015160079091015580546040518981526001600160a01b038c81169216907fad0fa41cf886c43d6312902012a3bcf2d76435f2ab8b54c9de5aac0d04ccaa139060200160405180910390a3505060675498975050505050505050565b600081815260686020908152604080832060048101805460ff19166005179055600281015460038201548552606684529382902054915185815290936001600160a01b03908116939216917f051541fa33cdf98d82de38e13160de44730371d42552463bdc76d7ed3af5bcda9101610c5a565b60008181526068602052604090206001600482015460ff1660058111156111f2576111f26115b1565b1461121057604051630c6caf8960e11b815260040160405180910390fd5b60038101546000908152606660205260409020546001600160a01b0316331461124c57604051638c38000360e01b815260040160405180910390fd5b806005015434101561127157604051631e9acf1760e31b815260040160405180910390fd5b60048101805460ff19166003179055600281015460058201546040516001600160a01b03909216916108fc82150291906000818181858888f193505050501580156112c0573d6000803e3d6000fd5b50600581015433906108fc906112d69034611883565b6040518115909202916000818181858888f193505050501580156112fe573d6000803e3d6000fd5b5060028101546001600160a01b0316336001600160a01b03167f184ef608d8195662f17d74a525860a7d10fb379a6232f73ef6cc6250b073489b8360010154604051610c5a91815260200190565b6113546113c2565b6001600160a01b0381166113b95760405162461bcd60e51b815260206004820152602660248201527f4f776e61626c653a206e6577206f776e657220697320746865207a65726f206160448201526564647265737360d01b6064820152608401610aed565b610b778161141c565b6033546001600160a01b03163314610a525760405162461bcd60e51b815260206004820181905260248201527f4f776e61626c653a2063616c6c6572206973206e6f7420746865206f776e65726044820152606401610aed565b603380546001600160a01b038381166001600160a01b0319831681179093556040519116919082907f8be0079c531659141344cd1fd0a4f28419497f9722a3daafe3b4186f6b6457e090600090a35050565b600054610100900460ff166114955760405162461bcd60e51b8152600401610aed906118ad565b610a52600054610100900460ff166114bf5760405162461bcd60e51b8152600401610aed906118ad565b610a523361141c565b604051806101000160405280600081526020016000815260200160006001600160a01b03168152602001600081526020016000600581111561150c5761150c6115b1565b81526020016000815260200160008152602001600081525090565b6000806040838503121561153a57600080fd5b50508035926020909101359150565b80356001600160a01b038116811461156057600080fd5b919050565b60008060006060848603121561157a57600080fd5b61158384611549565b95602085013595506040909401359392505050565b6000602082840312156115aa57600080fd5b5035919050565b634e487b7160e01b600052602160045260246000fd5b600681106115e557634e487b7160e01b600052602160045260246000fd5b9052565b805182526020810151602083015260018060a01b03604082015116604083015260608101516060830152608081015161162560808401826115c7565b5060a081015160a083015260c081015160c083015260e081015160e08301525050565b610100810161165782846115e9565b92915050565b6020808252825182820181905260009190848201906040850190845b818110156116a05761168c8385516115e9565b928401926101009290920191600101611679565b50909695505050505050565b81516001600160a01b0316815260208083015190820152604080830151908201526060808301519082015260808101611657565b600080604083850312156116f357600080fd5b6116fc83611549565b946020939093013593505050565b6020808252825182820181905260009190848201906040850190845b818110156116a05761176083855180516001600160a01b031682526020808201519083015260408082015190830152606090810151910152565b9284019260809290920191600101611726565b600080600080600060a0868803121561178b57600080fd5b61179486611549565b97602087013597506040870135966060810135965060800135945092505050565b888152602081018890526001600160a01b03871660408201526060810186905261010081016117e760808301876115c7565b8460a08301528360c08301528260e08301529998505050505050505050565b60006020828403121561181857600080fd5b61182182611549565b9392505050565b634e487b7160e01b600052601160045260246000fd5b60006001820161185057611850611828565b5060010190565b634e487b7160e01b600052604160045260246000fd5b634e487b7160e01b600052603260045260246000fd5b8181038181111561165757611657611828565b6000816118a5576118a5611828565b506000190190565b6020808252602b908201527f496e697469616c697a61626c653a20636f6e7472616374206973206e6f74206960408201526a6e697469616c697a696e6760a81b60608201526080019056fea2646970667358221220f0c6da60e62d10c5069e36ebdc53967e2f25c99aaccb26095eea7838c541aaea64736f6c63430008170033",
  "linkReferences": {},
  "deployedLinkReferences": {}
}